:020000040800F2
:1000000078150020211E00087D1E00087D1E0008B6
:100010007D1E00087D1E00087D1E000800000000F7
:100020000000000000000000000000007D1E00082D
:100030007D1E0008000000007D1E0008851E0008CF
:100040007D1E00087D1E00087D1E00087D1E000824
:100050007D1E00087D1E00087D1E00087D1E000814
:100060007D1E0008ED240008592500087D1E0008AB
:100070007D1E00087D1E00087D1E00087D1E0008F4
:100080007D1E00087D1E00081D2800087D1E00083A
:100090007D1E00087D1E00087D1E00087D1E0008D4
:1000A0009D220008B123000825240008AD1E000889
:1000B0006D230008112000087D1E00087D1E000829
:1000C0007D1E00087D1E00087D1E00087D1E0008A4
:1000D0007D1E00087D1E00087D1E00087D1E000894
:1000E000D92500087D1E00087D1E00087D1E000821
:1000F0007D1E00087D1E00087D1E00087D1E000874
:100100007D1E00087D1E00087D1E00087D1E000863
:100110007D1E00087D1E0008DD2000083D2200082D
:100120007D1E00087D1E00087D1E00087D1E000843
:100130007D1E00087D1E00087D1E00087D1E000833
:100140007D1E00087D1E00087D1E00087D1E000823
:100150007D1E00087D1E00087D1E00087D1E000813
:100160007D1E00087D1E00087D1E00087D1E000803
:100170007D1E00087D1E00087D1E00087D1E0008F3
:100180007D1E00087D1E000880B483B000AF78603B
:100190000B46FB70184A7B68013B5360164B0022EC
:1001A0009A60164A154B93F82330DBB243F00F03E5
:1001B000DBB282F82330104A0F4B1B6823F0040394
:1001C0001360FB78002B06D00B4A0B4B1B6843F0E7
:1001D0000203136005E0084A074B1B6823F0020383
:1001E0001360054A044B1B6843F00103136000BF12
:1001F0000C37BD4680BC704710E000E000ED00E029
:1002000080B400AF044B1B68034B00221A6000BF90
:10021000BD4680BC704700BF10E000E080B485B0F0
:1002200000AF0346FB710023FB600023BB60FB793A
:10023000013B0D2B3ED801A252F823F075020008B5
:100240007B0200087B0200087B0200087B0200089A
:100250007B0200087B0200088B020008970200085E
:100260009702000897020008A5020008A5020008EE
:10027000A5020008144BFB601DE04FF08043FB60BB
:10028000FB79023B9B02BB6015E00F4BFB604FF418
:100290008063BB600FE00C4BFB60FB7907339B0274
:1002A000BB6008E04FF08043FB60FB79063B9B029C
:1002B000BB6000E000BFFA68BB68134418461437FF
:1002C000BD4680BC704700BF0000014090B587B0BC
:1002D00000AF03460A46FB711346BB71FB79184613
:1002E000FFF79CFF78610223FB743848374B1A6C88
:1002F000F979FB7CCB1A012101FA03F31343036460
:100300007B691B889BB223F4C37323F001039AB269
:100310007B691A80BB79002B02D0012B11D051E0F0
:100320007B691B889BB243F008039AB27B691A80F1
:100330007B699B899BB223F001039AB27B699A8106
:1003400040E07B691B889BB223F008039AB27B696B
:100350001A807B6900221A827B699B899BB243F0D9
:1003600001039AB27B699A817B6900225A627B6998
:100370004AF20F421A857B69C722DA62FB79303371
:10038000FB601348FB685B091149FA68520951F890
:100390002210FA6802F01F02012404FA02F20A4352
:1003A00040F823200A4AFB68134403F54073F02207
:1003B0001A707B691B889BB243F001039AB27B6978
:1003C0001A8000BF00BF1C37BD4690BD00380240F8
:1003D00000E100E090B585B000AF0346FB80062049
:1003E000FFF71CFFF860FB681B889BB223F001033A
:1003F0009AB2FB681A80FB6800225A62FB680022EE
:100400001A82FB88184605F0EBF94FF00002104BFA
:1004100005F076FB03460C46184621464FF00002D5
:100420000C4B05F08FF803460C461846214605F0A4
:10043000EDFC0246FB68DA62FB681B889BB243F066
:1004400001039AB2FB681A8000BF1437BD4690BD05
:100450000000E03F0000F03F90B585B000AFC7E975
:1004600000010720FFF7DAFEF860FB6800221A821D
:10047000FB6800225A62FB684AF20F421A854FF06D
:100480000002164BD7E9000105F03AFB03460C4683
:10049000184621464FF00002114B05F053F8034671
:1004A0000C461846214605F0B1FC03469BB21A469D
:1004B000FB68DA62FB681B889BB243F001039AB2C7
:1004C000FB681A8000BFFB681B8A9BB203F0010324
:1004D000002BF8D000BF1437BD4690BD0000E03FB0
:1004E0000000F03F90B585B000AFC7E900010720DC
:1004F000FFF794FEF860FB6800221A82FB68002276
:100500005A62FB6853221A854FF00002114BD7E95B
:10051000000105F017F803460C461846214605F081
:1005200075FC03469BB21A46FB68DA62FB681B88BF
:100530009BB243F001039AB2FB681A8000BFFB68CC
:100540001B8A9BB203F00103002BF8D000BF1437C5
:10055000BD4690BD0000F03F80B588B000AF3B6065
:100560000346FB710B46BB711346BB80FB791846F3
:10057000FFF754FEB861BB691B889BB223F08B0365
:100580009AB2BB691A80BB691B889BB243F0040313
:100590009AB2BB691A80BB699B89BB6900229A81A8
:1005A000FB79013B0D2B00F21D8301A252F823F0D1
:1005B000E9050008F7070008F7070008F707000833
:1005C000F7070008E50B0008E50B0008E90500083F
:1005D000E5090008D30A0008D30A0008E509000865
:1005E000D30A0008D30A0008FB79012B14BF0123AA
:1005F0000023DBB2FB759A49994B5A6CFB7D0120B5
:1006000000FA03F313434B64964A3B68B2FBF3F3DF
:100610009BB2013B9AB2BB691A85BB79022B1CD0F5
:10062000BB691B889BB223F010039AB2BB691A8086
:10063000BB691B889BB21AB2BB791B041BB2134364
:100640001BB29AB2BB691A80BB691B889BB223F0AC
:1006500060039AB2BB691A8007E0BB691B889BB232
:1006600043F060039AB2BB691A80386805F0F4FC65
:100670000346B96A184605F0FBFD03464FF07E516C
:10068000184605F037FC0346184605F029FF0246D8
:10069000BB69DA62BB695B6ABB6900225A62BB69EB
:1006A000B3F844309BB223F440739AB2BB69A3F809
:1006B0004420BB691B8B9AB2BB881B049BB21343BB
:1006C0009BB243F060039AB2BB691A83BB691B8B70
:1006D0009AB2BB8813439BB243F4C0439AB2BB693E
:1006E0001A83BB699B8B9AB2BB881B049BB21343D2
:1006F0009BB243F060039AB2BB699A83BB699B8B40
:100700009AB2BB8813439BB243F4C0439AB2BB690D
:100710009A83BB691B8B9BB243F4006343F00803CD
:100720009AB2BB691A83BB699B8B9BB243F400638B
:1007300043F008039AB2BB699A8397F83030002BD4
:1007400002D0012B11D02FE0BB699B889BB223F014
:1007500070039AB2BB699A80BB699B889BB243F0D5
:1007600040039AB2BB699A801EE0BB691B8C9BB2A6
:1007700023F4885323F011039AB2BB691A84BB692E
:100780001B8B9BB223F4407323F003039AB2BB6923
:100790001A83BB699B8B9BB223F4407323F0030342
:1007A0009AB2BB699A8300BFBB691B8C9BB223F4CE
:1007B000085323F022039AB2BB691A840023BA6952
:1007C0001364BA69D363BA699363BA695363BB6943
:1007D000B3F844309BB26FEA43436FEA53439AB293
:1007E000BB69A3F84420FB79012B01D11B2300E056
:1007F0002E23FB83F7E1FB79023BFB751849184B6D
:100800001A6CFB7D012000FA03F313430B64164AB4
:100810003B68B2FBF3F39BB2013B9AB2BB691A850A
:10082000BB79022B22D0BB691B889BB223F010033B
:100830009AB2BB691A80BB691B889BB21AB2BB799A
:100840001B041BB213431BB29AB2BB691A80BB696B
:100850001B889BB223F060039AB2BB691A800DE03B
:1008600000380240007A030A00BD0105BB691B88FD
:100870009BB243F060039AB2BB691A80386805F0F6
:10088000EBFB0346B96A184605F0F2FC03464FF04D
:100890007E51184605F02EFB03463B61386905F092
:1008A0001FFE0246BB69DA62BB695B6ABB69002254
:1008B0005A62BB691B8B9AB2BB881B049BB2134361
:1008C0009BB243F060039AB2BB691A83BB691B8B6E
:1008D0009AB2BB8813439BB243F4C0439AB2BB693C
:1008E0001A83BB699B8B9AB2BB881B049BB21343D0
:1008F0009BB243F060039AB2BB699A83BB699B8B3E
:100900009AB2BB8813439BB243F4C0439AB2BB690B
:100910009A83BB691B8B9BB243F4006343F00803CB
:100920009AB2BB691A83BB699B8B9BB243F4006389
:1009300043F008039AB2BB699A8397F83030002BD2
:1009400002D0012B11D02FE0BB699B889BB223F012
:1009500070039AB2BB699A80BB699B889BB243F0D3
:1009600040039AB2BB699A801EE0BB691B8C9BB2A4
:1009700023F4885323F011039AB2BB691A84BB692C
:100980001B8B9BB223F4407323F003039AB2BB6921
:100990001A83BB699B8B9BB223F4407323F0030340
:1009A0009AB2BB699A8300BFBB691B8C9BB223F4CC
:1009B000085323F022039AB2BB691A840023BA6950
:1009C0001364BA69D363BA699363BA695363FB79F1
:1009D000052B04D0FB7D9BB21C339BB200E032237D
:1009E000FB8300E1FB79092B11D1914A904B5B6CA1
:1009F00043F4803353648F4A3B68B2FBF3F39BB2FA
:100A0000013B9AB2BB691A851823FB8310E0884A20
:100A1000874B1B6C43F040031364874A3B68B2FB6F
:100A2000F3F39BB2013B9AB2BB691A852B23FB837C
:100A3000386805F011FB0346B96A184605F018FC42
:100A40000346184605F04CFD0246BB69DA62BB69F5
:100A50001B8B9AB2BB881B049BB213439BB243F01F
:100A600060039AB2BB691A83BB691B8B9AB2BB88BD
:100A700013439BB243F4C0439AB2BB691A83BB6968
:100A80001B8B9BB243F4006343F008039AB2BB692B
:100A90001A83BB691B8C9BB223F011039AB2BB690A
:100AA0001A84BB691B8B9BB223F4407323F00303AE
:100AB0009AB2BB691A83BB691B8C9BB223F02203D9
:100AC0009AB2BB691A840023BA699363BA69536303
:100AD00089E0FB790B2B1CD8FB790733FB75544954
:100AE000534B5A6CFB7D012000FA03F313434B6414
:100AF000504A3B68B2FBF3F39BB2013B9AB2BB692D
:100B00001A85FB790A2B01D1192300E01A23FB83F4
:100B10001BE0FB79063BFB754549454B1A6CFB7D99
:100B2000012000FA03F313430B64434A3B68B2FB12
:100B3000F3F39BB2013B9AB2BB691A85FB790D2B8B
:100B400001D12C2300E02D23FB83B86A05F0C8FCFB
:100B500003469BB21A463B68B3FBF2F35A1EBB69CD
:100B6000DA62BB691B8B9BB223F070039AB2BB693C
:100B70001A83BB691B8B9AB2BB881B049BB21343BD
:100B80009BB243F060039AB2BB691A83BB691B8BAB
:100B90009BB243F008039AB2BB691A83BB691B8CF2
:100BA0009BB223F001039AB2BB691A84BB691B8B09
:100BB0009BB223F003039AB2BB691A83BB691B8CF7
:100BC0009BB223F002039AB2BB691A84BB6900226C
:100BD0005A63BB691B8C9BB243F001039AB2BB6999
:100BE0001A8400E000BF97F82C30002B1CD0BB69A2
:100BF0009B899BB243F001039AB2BB699A81FB8B3C
:100C00005B099BB2FB60FB8B03F01F03BB600B49CE
:100C10000A4AFB6852F823200120BB6800FA03F35C
:100C20001A43FB6841F8232000BF2037BD4680BD32
:100C300000380240007A030A00BD010500E100E02F
:100C400080B584B000AF03460A46FB711346BB7102
:100C5000FB791846FFF7E2FAF860FB681B8C9BB241
:100C60001AB2BB79013B9B00012101FA03F31BB2CD
:100C700013431BB29AB2FB681A84FB681B889BB2B1
:100C800043F001039AB2FB681A8000BF1037BD46DB
:100C900080BD00BF80B584B000AF03463A60FB71F1
:100CA0000B46BB71FB791846FFF7B8FAF860FB6892
:100CB000DB6ABB60BB68164AA2FB03235A093B6888
:100CC00002FB03F33B60BB79013B032B1AD801A263
:100CD00052F823F0E50C0008ED0C0008F50C0008B4
:100CE000FD0C0008FB683A685A630CE0FB683A6840
:100CF0009A6308E0FB683A68DA6304E0FB683A68E4
:100D00001A6400E000BF00BF1037BD4680BD00BFC1
:100D10001F85EB5180B586B004AF396011461A4685
:100D20000346FB710B46BB7113467B71FB79013B9C
:100D3000092B00F2558101A252F823F0650D00083D
:100D4000F50D0008230E0008B30E0008E10F00089F
:100D5000E10F0008E10F0008E10F0008430F000851
:100D6000A10F00087B79012B27D102219F4801F0B8
:100D7000CDFF02219E4801F0C9FF02219D4801F0EC
:100D8000C5FF02219C4801F0C1FF0023022201217E
:100D9000964802F05BF8002302220121944802F0F9
:100DA00055F8002302220121924802F04FF8002357
:100DB00002220121904802F049F8F8797B790293E8
:100DC000BB7901933B6800938C4B00220021FFF715
:100DD000C3FB01210120FFF733FF02210120FFF7B0
:100DE0002FFF03210120FFF72BFF04210120FFF734
:100DF00027FFF6E0F8797B790293BB7901933B6892
:100E000000934FF4FA6300220021FFF7A5FB0121B4
:100E10000220FFF715FF322201210220FFF73AFFDF
:100E2000DFE07B79012B27D10221754801F06EFFAD
:100E30000221744801F06AFF0221734801F066FF45
:100E40000221724801F062FF0123022202216C4854
:100E500001F0FCFF0123022202216A4801F0F6FFA3
:100E6000012302220221684801F0F0FF012302223F
:100E70000221664801F0EAFFF8797B790293BB7999
:100E800001933B6800935D4B00220021FFF764FB58
:100E900001210320FFF7D4FE02210320FFF7D0FE3B
:100EA00003210320FFF7CCFE04210320FFF7C8FE37
:100EB00097E07B79012B27D10221554801F026FFCD
:100EC0000221544801F022FF0221534801F01EFF85
:100ED0000221524801F01AFF0023022202214C484D
:100EE00001F0B4FF0023022202214A4801F0AEFFC4
:100EF000002302220221484801F0A8FF0023022219
:100F00000221464801F0A2FFF8797B790293BB7970
:100F100001933B680093394B00220021FFF71CFB33
:100F200001210420FFF78CFE02210420FFF788FE38
:100F300003210420FFF784FE04210420FFF780FE34
:100F40004FE00221364801F0E1FE0221354801F070
:100F5000DDFE002302220321314801F077FF002348
:100F6000022203212F4801F071FFF8797B79029367
:100F7000BB7901934FF07E5300932B4B002200214D
:100F8000FFF7EAFA01210920FFF75AFE02210920A2
:100F9000FFF756FE012201210920FFF77BFE20E02A
:100FA0000221224801F0B2FE0023022203211F4841
:100FB00001F04CFFF8797B790293BB7901933B6890
:100FC00000930E4B00220021FFF7C6FA01210A20F0
:100FD000FFF736FE322201210A20FFF75BFE00E018
:100FE00000BF00BF0837BD4680BD00BF1CA700087A
:100FF00020A7000824A7000828A70008A086010051
:101000002CA7000830A7000834A7000838A700085C
:1010100048A700084CA7000850A7000854A70008DC
:101020003CA7000840A7000840420F0044A7000862
:1010300080B483B000AF03463960FB711346BB71C7
:1010400009E03B681B78FA799A4201D1012308E054
:101050003B6801333B60BB795A1EBA71002BF0D15B
:10106000002318460C37BD4680BC704780B582B05F
:1010700000AF78600121786801F06CFF4FF000004C
:101080000749FFF72FFA0021786801F063FF4FF05E
:1010900000000349FFF726FA00BF0837BD4680BDB0
:1010A0000000444080B500AF012000F0EDF84FF0A3
:1010B00000000249FFF716FA00BF80BD00A099406A
:1010C0002DE9F04186B000AF0246FA710A46BA71C6
:1010D0006A469046BA7992B2C2F11002FA82F88A50
:1010E0000246013A3A6181B24FF00002D60046EA68
:1010F0005176CD0081B24FF00002D40044EA517421
:10110000CB0003460733DB08DB00ADEB030D6B467A
:101110000033FB6006E0FB8A013BFB82FB8AFA6836
:101120002021D154FB8A002BF5D1BA79FB791146E5
:10113000184600F029F9FB68184600F0B9F8C546D2
:1011400000BF1837BD46BDE8F08100BF80B582B052
:1011500000AF0346FB71FB79184600F095F84FF09D
:1011600000000349FFF7BEF900BF0837BD4680BD48
:101170000000444080B582B000AF0346FB71FB79AC
:10118000184600F081F84FF000000349FFF7AAF974
:1011900000BF0837BD4680BD0000444080B586B022
:1011A00000AFC7E900230346FB730B46BB73FB7B11
:1011B000184600F069F8BB7B002B01D1054B00E01D
:1011C000054B7B617B69D7E90001984700BF183761
:1011D000BD4680BDE5040008590400080000000079
:1011E00080B500AF22A1D1E90001FFF77BF922A36E
:1011F000D3E9002300213020FFF7D0FF4FF0000299
:101200001F4B00213020FFF7C9FF4FF000021C4B9D
:1012100000213020FFF7C2FF4FF00002194B0021E0
:101220002020FFF7BBFF4FF00002164B00212020CB
:10123000FFF7B4FF4FF00002124B00212820FFF708
:10124000ADFF4FF000020F4B00212820FFF7A6FF53
:101250000820FFF78FFFFFF725FF0620FFF776FF37
:101260000C20FFF787FFFFF71DFF00BF80BD00BF09
:1012700000000000004CDD40000000000004B04011
:10128000000064400000444080B582B000AF0346D7
:10129000FB710021054801F05DFEFB79184600F066
:1012A00021F800BF0837BD4680BD00BF58A7000821
:1012B00080B582B000AF78600121094801F04AFE94
:1012C00006E07B685A1C7A601B78184600F00AF822
:1012D0007B681B78002BF4D100BF0837BD4680BD6A
:1012E00058A7000880B586B000AF0346FB71022303
:1012F000FB810423BB8100BFFB89013B7B6131E0A3
:10130000FA797B699B0042FA03F3DBB203F00F0327
:10131000FB72BB89013B3B611BE0FA7A3B6942FAF5
:1013200003F303F00103002B08D0144A3B6952F881
:1013300023300121184601F00DFE07E00F4A3B69FA
:1013400052F823300021184601F004FE3B69013BAE
:101350003B613B69002BE0DA0948FFF787FE7B69B8
:10136000013B7B617B69002BCADA4FF00000054925
:10137000FFF7B8F800BF1837BD4680BD0003002056
:101380005CA7000800407F4080B584B000AF0346F2
:101390000A46FB711346BB71FB799B01DAB2BB793C
:1013A0001344FB73FB7B803BDBB21846FFF76CFFFB
:1013B00000BF1037BD4680BD80B586B000AFF86075
:1013C0000B467A607B810023FB7518E0FA7D7B6811
:1013D00013F81200FB7D7A685B0013445B781946B2
:1013E000FFF7D2FFFA7D1346DB0013445B00FA6877
:1013F00013441846FFF75CFFFB7D0133FB75FB7D53
:101400009BB27A899A42E1D800BF1837BD4680BDA9
:1014100090B593B000AF0346FB71A44BBB63A44BE4
:101420001B78FA799A424ED0A24B01221A70FFF72C
:1014300039FEFB79013B042B3BD801A252F823F083
:10144000551400087314000883140008931400084E
:10145000A314000800210020FFF796FF9648FFF72D
:1014600027FF052387F83F30944B7B64944B3B6404
:101470001FE0052387F83F30924B7B64924B3B641F
:1014800017E0062387F83F30904B7B64904B3B641A
:101490000FE0022387F83F308E4B7B648E4B3B641A
:1014A00007E0032387F83F308C4B7B648C4B3B6415
:1014B00000BF97F83F3099B2BB6B3A6C786C984795
:1014C0007B4AFB791370FB79013B042B00F2E98026
:1014D00001A252F823F000BFED1400084F150008D8
:1014E0004F1500089D160008ED1500087D4B1A8861
:1014F0007D4B1B889BB29A4203D16E4B1B78002B0D
:101500001BD0794B1B889BB21A4607F12003774901
:10151000184605F00BF80A210020FFF7D1FD0A213B
:101520000020FFF731FF07F120031846FFF7C0FE48
:101530006D4B1B889AB26B4B1A805E4B1B78194619
:101540006B4800F0F9FA5B4B00221A70A9E0694A77
:1015500007F114031068516803C312891A80FB79DC
:10156000022B01D1002300E00223BB872CE0BB8FBC
:101570000133DB00604A9C18BB8F5F4A10339B002D
:101580001344D3F80130184604F03CF902460B46E8
:101590002146594804F0CAFFBB8F5B0007F148029F
:1015A000134413F8342CBB8F5B0007F148010B4444
:1015B00013F8333C19461046FFF7E6FE4E48FFF796
:1015C00077FEBB8F0133BB87BA8FFB79022B01D12A
:1015D000022300E005239A42C9DB474A92F83630DD
:1015E0006FF3000382F8363000BF5AE0434B1A789D
:1015F000434B1B789A4203D12E4B1B78002B4FD0C4
:101600003E4B1B781A4607F10C033E49184604F07E
:101610008DFF0F210020FFF7B7FE07F10C031846DE
:10162000FFF746FE09210120FFF7AEFE364B1B886F
:101630009BB2002B16D0344B1B889BB2184604F08B
:10164000CFF803460C461A4623464FF000002F49B8
:1016500004F056FA03460C461846214604F0F6FB01
:10166000034601E04FF000037B63786B04F0CAF897
:1016700003460C4607F10C001A462346244904F0A1
:1016800055FF07F10C031846FFF712FE1C4B1A78A2
:101690001A4B1A70074B00221A7001E000BF00E0DD
:1016A00000BF00BF4C37BD4690BD00BFB913000856
:1016B000E80C0020E90C002060A7000804000020CE
:1016C000600000206C000020C8000020D400002032
:1016D000400100204C010020700100207401002016
:1016E000AC010020EA0C0020300D00206CA700089F
:1016F0006C0D002080A70008F0010020B20100203E
:10170000EC01002074A70008EA01002000408F408F
:1017100078A7000890B583B000AF994A984B1B6C2E
:1017200043F0805313644FF000009649FEF7DAFE51
:1017300000BF934B1B6C03F08053002BF9D0924AEF
:10174000914B1B6843F48073136000BF8E4B1B6882
:1017500003F48073002BF9D0894A894B1B6F23F067
:1017600005031367864A864B1B6F43F48033136768
:10177000834A834B1B6F23F480331367804A804B6B
:101780001B6F43F00103136700BF7D4B1B6F03F01A
:101790000203002BF9D07A4A794B1B6F23F4407374
:1017A0001367774A764B1B6F43F480731367744A51
:1017B000734B1B6C23F080531364714A704B1B6F87
:1017C00043F400431367714BCA225A626F4B532292
:1017D0005A626E4A6D4BDB6843F08003D36000BFF2
:1017E0006A4BDB6803F04003002BF9D0674A674B74
:1017F0009B6823F060039360644B654A1A61634AF7
:10180000624B1B6943F0FF031361604A5F4B1B6926
:1018100043F4FE0313615F4A3B461068516803C3FB
:101820005A4C7B795C4AA2FB0323DB08DBB21B0525
:1018300018467A79584BA3FB0213D9080B469B0034
:101840000B445B00D31ADBB21B040343BA79524941
:10185000A1FB0212D208D2B2120343EA0200BA7903
:101860004D4BA3FB0213D9080B469B000B445B00B6
:10187000D31ADBB21B020343FA794749A1FB0212D8
:10188000D208D2B2120143EA0200BA79424BA3FB5A
:101890000213D9080B469B000B445B00D31ADBB242
:1018A00003432360394CB7F803309BB23A4AA2FB9A
:1018B0000323DB089AB2384BA3FB0213D9080B466B
:1018C0009B000B445B00D31A9BB21805B7F803309A
:1018D0009AB2314BA3FB0213D9080B469B000B4471
:1018E0005B00D31A9BB21B0440EA03023B785B0304
:1018F0001A43BB782849A1FB0313DB08DBB21B03A7
:1019000042EA0300BA78244BA3FB0213D9080B4622
:101910009B000B445B00D31ADBB21B0240EA0302BC
:101920007B781D49A1FB0313DB08DBB21B0142EAF4
:1019300003007A78184BA3FB0213D9080B469B00CF
:101940000B445B00D31ADBB2034363600F4A0F4BB7
:10195000DB6823F08003D3600C4BFF225A624FF008
:1019600000000E49FEF7BEFD084BDB6803F01003D4
:10197000002B01D001F06CFB00BF0C37BD4690BDC1
:10198000003802400000594000700040002800402C
:10199000FF007F008CA70008CDCCCCCC00408F404E
:1019A00080B588B000AF7860604BDB6803F010034F
:1019B000002B00F0B6805D4BDB6803F02003002BAA
:1019C00000F0AF805A4B5B4A1A60584B1B68FB61B2
:1019D000564B5B68BB61FB691B0C03F03F03184669
:1019E00002F0A0F90346FB75FB691B0A03F07F03B5
:1019F000184602F097F90346BB75FB6903F07F03B5
:101A0000184602F08FF903467B75BB691B0CDBB2ED
:101A1000184602F087F903469BB203F5FA637B820E
:101A2000BB695B0B03F00703184602F07BF9034622
:101A30007B74BB691B0A03F01F03184602F072F99E
:101A400003463B74BB6903F03F03184602F06AF992
:101A50000346FB73364B1B68DB797A7D9A4206D0CE
:101A6000334B1B687A7DDA71DA797B68DA71304B37
:101A70001B689B79BA7D9A4206D02D4B1B68BA7DB4
:101A80009A719A797B689A71294B1B685B79FA7D08
:101A90009A4206D0264B1B68FA7D5A715A797B68A8
:101AA0005A71234B1B68B3F803309BB27A8A9A426F
:101AB0000AD01F4B1B687A8AA3F80320B3F80330BF
:101AC0009AB27B68A3F80320194B1B681B787A7CB9
:101AD0009A4206D0164B1B687A7C1A701A787B687B
:101AE0001A70134B1B689B783A7C9A4206D0104BB5
:101AF0001B683A7C9A709A787B689A700C4B1B68CA
:101B00005B78FA7B9A4206D0094B1B68FA7B5A70C5
:101B10005A787B685A70054A044BDB6823F020032F
:101B2000D36000BF2037BD4680BD00BF0028004005
:101B3000EC0C0020F00C0020B0B594B000AF786041
:101B40000B46FB705E4B07F134041D46286869683C
:101B5000AA68EB680FC42869696903C4594A07F188
:101B60002C031068186092889A80574A07F1240362
:101B70001068186092889A807B681B789BB23B83C0
:101B80007B685B789BB27B837B689B789BB2BB83D3
:101B90007B68B3F803309BB2FB837B685B799BB2B5
:101BA0003B847B689B799BB27B840623A7F84C30EF
:101BB0000023A7F84E306CE0B7F84E30434A32F8B5
:101BC0001320B7F84E305B0007F150010B4433F897
:101BD000383C9A4206D13E4B1B78002B02D0FB7852
:101BE000002B51D0B7F84E3007F15002134413F8D0
:101BF000243C19460120FFF7C7FBB7F84E30002BF5
:101C000023D0B7F84E30032B0AD1B7F84E305B0023
:101C100007F15002134433F8383CA3F2E47108E0B2
:101C2000B7F84E305B0007F15002134433F8383CEC
:101C30001946B7F84E3007F15002134413F82C2C14
:101C400007F10C03184602F0AFF8B7F84E30002B3E
:101C500008D13B8B194607F134020B465B000B445D
:101C6000134401E007F10C031846FFF721FBB7F816
:101C70004E20B7F84E305B0007F150010B4433F8AB
:101C8000381C124B23F81210B7F84E300133A7F866
:101C90004E30B7F84E20B7F84C309A428CD30C4BEC
:101CA0001B78002B02D10A4B01221A70FB78002B03
:101CB00001D00023FB7000BF5037BD46B0BD00BF50
:101CC00094A70008ACA70008B4A70008F80C0020EF
:101CD000100D00200000000090B589B000AFBA6080
:101CE0007B600346FB730B46BB81FB7B1846FEF70C
:101CF00095FAF861BB8903F001039BB2002B0FD06A
:101D00007968B86804F0B4FA0346184603F07AFD1F
:101D100041A3D3E9002303F0C9FD03460C4613E0B9
:101D2000B968786804F0E6F803467968184604F064
:101D30009FFA0346184603F065FD37A3D3E9002355
:101D400003F0B4FD03460C461846214604F07EF825
:101D50000346BB61FB69DB6AFB82B86902F094FA57
:101D60000446FB8A184604F07BF9034619462046D0
:101D700004F0CAF90346184602F062FA0346184610
:101D800004F0AEFB0346BB82B86902F01DFA0446BC
:101D9000FB8A184604F064F903461946204604F00D
:101DA000B3F90346184602F04BFA0346184604F00E
:101DB00097FB03467B82BB89013B032B26D801A2FC
:101DC00052F823F0D51D0008E31D0008F11D00089E
:101DD000FF1D0008BA8AFB695A637A8AFB691A6494
:101DE00014E0BA8AFB695A637A8AFB69DA630DE008
:101DF000BA8AFB699A637A8AFB69DA6306E0BA8A6F
:101E0000FB699A637A8AFB691A6400BF00BF2437B2
:101E1000BD4690BDAFF30080182D4454FB21F93F1F
:101E200080B582B000AF104B7B60104B3B6007E089
:101E30003B681A1D3A607A68111D796012681A6051
:101E40003B680B4A9342F3D30A480B494FF0000218
:101E50008842B8BF40F8042BFADB00F0B9FD00BFA0
:101E60000837BD4680BD00BF2CAF00080000002031
:101E7000E80C0020E80C0020780D002080B400AFB2
:101E8000FEE700BF80B500AF064B1B889AB2064B39
:101E90001B889BB21946104601F0C0FAFEF7B0F954
:101EA00000BF80BDB6010020B401002080B500AFA6
:101EB000544B9B899BB21A46524B1B8A9BB21340D0
:101EC00003F00203002B19D04F4B1B7819464F48E3
:101ED00001F040F84C4B1B78002B0CBF0123002372
:101EE000DBB21A46484B1A70464A464B1B8A9BB2D5
:101EF00023F4007323F002039BB21382414B9B89AE
:101F00009BB21A463F4B1B8A9BB2134003F004035B
:101F1000002B19D03C4B1B7819463C4801F01AF8AD
:101F2000394B1B78002B0CBF01230023DBB21A4670
:101F3000354B1A70334A334B1B8A9BB223F48063B0
:101F400023F004039BB213822E4B9B899BB21A464B
:101F50002C4B1B8A9BB2134003F00803002B19D0B3
:101F6000294B1B781946294800F0F4FF264B1B78B3
:101F7000002B0CBF01230023DBB21A46224B1A7040
:101F8000204A204B1B8A9BB223F4006323F00803F2
:101F90009BB213821B4B9B899BB21A46194B1B8A1F
:101FA0009BB2134003F01003002B19D0164B1B7883
:101FB0001946164800F0CEFF134B1B78002B0CBFC0
:101FC00001230023DBB21A460F4B1A700D4A0D4B4A
:101FD0001B8A9BB223F4805323F010039BB213821D
:101FE000084B1B8A9BB203F04103002B07D0054A24
:101FF000044B1B8A9BB223F041039BB2138200BFA8
:1020000080BD00BF00000140B8010020BCA700084F
:1020100080B582B000AF2D4B1B8A9BB203F0010349
:10202000002B4ED02A4B1B889BB2112B11D1284B71
:1020300001221A80274B1B889BB2042B05D0254B0D
:102040001B889BB201339BB200E00123214A13801D
:102050002FE0214B1B78012B06D01E4B1B889BB217
:10206000C3F105039BB202E01A4B1B889BB2FB80B5
:10207000194B1B78012B06D0154B1B889BB2C3F163
:1020800010039BB202E0124B1B889BB2BB80BB8843
:10209000184603F0E1FF0246F9884FF0834303201E
:1020A000FFF71AFE0A4B1B889BB201339AB2084B0A
:1020B0001A80064A054B1B8A9BB223F001039BB290
:1020C000138200BF0837BD4680BD00BF000400403A
:1020D000BA010020BC010020B301002080B500AF90
:1020E000484B1B8A474B00221A82474B1B78DBB2B6
:1020F0001946464800F02EFF434B1B78DBB2002BFD
:102100000CBF01230023DBB21A463F4B1A70404B31
:102110001B78002B1AD03F4B1B68632B03DC3D4B15
:102120001B68002B04DC3C4B1B685B423A4A136083
:10213000394B1A68374B1B681344364A1360354BCA
:102140001B681A4601210420FEF7A4FD334B1B78BF
:10215000002B1AD0324B1B68632B03DC304B1B68FF
:10216000002B04DC2F4B1B685B422E4A13602D4B67
:102170001A682B4B1B681344294A1360284B1B68B1
:102180001A4602210420FEF785FD274B1B78002B01
:1021900035D0264B1B68632B03DC244B1B68002BBC
:1021A00004DC234B1B685B42214A1360214B1B68F4
:1021B000632B03DC1F4B1B68002B04DC1E4B1B68CE
:1021C0005B421D4A13601A4B1A68184B1B68134474
:1021D000164A1360184B1A68164B1B681344154AAD
:1021E0001360124B1B681A4603210420FEF752FDB0
:1021F000104B1B681A4604210420FEF74BFD00BF5C
:1022000080BD00BF00100040BE010020C0A7000834
:10221000140D0020C0010020C4010020150D002075
:10222000C8010020CC010020160D0020D0010020A4
:10223000D4010020D8010020DC01002080B500AFCF
:10224000124B1B8A114B00221A82114B1B78DBB2F6
:102250001946104800F07EFE0D4B1B78DBB2002BB8
:102260000CBF01230023DBB219460B4800F072FEBD
:10227000074B1B78DBB2002B0CBF01230023DBB222
:102280001A46034B1A7000BF80BD00BF0014004007
:10229000E0010020C4A70008C8A7000880B500AF6F
:1022A0002E4B9B899BB21A462C4B1B8A9BB2134028
:1022B00003F00203002B1AD0294B1B78194629483A
:1022C00000F048FE264B1B78002B0CBF0123002397
:1022D000DBB21A46224B1A70204A204B1B8A9BB253
:1022E00023F4007323F002039BB2138225E01B4BFF
:1022F0009B899BB21A46194B1B8A9BB2134003F071
:102300000403002B19D0184B1B781946154800F010
:1023100021FE154B1B78002B0CBF01230023DBB2E1
:102320001A46114B1A700D4A0C4B1B8A9BB223F4B0
:10233000806323F004039BB21382084B1B8A9BB279
:1023400003F04103002B07D0044A044B1B8A9BB2C5
:1023500023F041039BB2138200BF80BD00400140C7
:10236000E1010020BCA70008E201002080B500AF19
:102370004FF080431B8A9BB203F00103002B13D064
:102380000A4A92F835306FF3030382F835300020A3
:1023900001F0E2FB4FF080424FF080431B8A9BB27A
:1023A00023F001039BB2138200BF80BDF001002027
:1023B00080B500AF184B1B8A9BB203F00203002BC1
:1023C00019D0164B1B781946154800F0C3FD134B66
:1023D0001B78002B0CBF01230023DBB21A460F4BE6
:1023E0001A700D4A0C4B1B8A9BB223F4007323F026
:1023F00002039BB21382084B1B8A9BB203F00103BA
:10240000002B07D0044A044B1B8A9BB223F0010324
:102410009BB2138200BF80BD00440140E301002055
:10242000BCA7000880B483B000AF2A4B1B8A9BB2C4
:1024300003F00203002B2DD0264B5B6B7B60264BF9
:102440001B68C3F10103244A1360234B1B68002B54
:1024500006D0224B01221A70214A7B6813600FE0DC
:102460001F4B1B687A68D21A1E4B1B681B0413444F
:102470001D4A13601B4B00221A60184B00221A7071
:10248000144A144B1B8A9BB223F4007323F00203FB
:102490009BB213820F4B1B8A9BB203F00103002BEC
:1024A00013D00E4B1B78002B01D0012200E000223C
:1024B0000C4B1B6813440B4A1360064A054B1B8ADE
:1024C0009BB223F001039BB2138200BF0C37BD46C1
:1024D00080BC704700480140180D00201C0D0020F2
:1024E000200D0020240D00202C0D002080B582B08E
:1024F00000AF164B09221A80154B03221A80134B8A
:102500001B8898B2124B1B889BB23222194600F0EE
:10251000EFFF0A20FDF782FE78607B681B889BB284
:1025200043F001039AB27B681A80094B1B889BB267
:102530001A46012303FA02F1064A064B5B690B4374
:10254000536100BF0837BD4680BD00BFB601002003
:10255000B4010020003C014080B500AF1A4B0A22B4
:102560001A801A4B04221A80174B1B8898B2174BFB
:102570001B889BB2C822194600F0BAFF144B1B7887
:10258000DBB2002B01D00C2300E008231846FEF735
:10259000F1FD0F4B1B78DBB2002B0CBF0123002396
:1025A000DBB21A460A4B1A70FFF7B4F8074B1B88C8
:1025B0009BB21A46012393400649064A52691343C7
:1025C0004B6100BF80BD00BFB6010020B4010020F8
:1025D000280D0020003C014080B584B000AF814B45
:1025E00028221A80804800F011FD0346FB707F4BC3
:1025F0005B6903F40063002B3ED07D4B0B221A80F5
:10260000784B1B8898B27A4B1B889BB2FA221946EA
:1026100000F06EFFFB78DBB2002B0BD1754B1B7803
:10262000DBB20133DAB2734B1A700121724800F049
:1026300091FC0EE0FB78DBB2002B0AD000216E4843
:1026400000F088FC6B4B1B78DBB2013BDAB2694BC4
:102650001A70684B1B78DBB2002B03D1654B052247
:102660001A70B0E0634B1B78DBB2052B40F2AB80F5
:10267000604B01221A70A6E05C4B5B6903F4806337
:10268000002B1AD05A4B0A221A80564B1B8898B23C
:10269000574B1B889BB24FF49672194600F028FFE7
:1026A000564B7B607B681B78012B14BF01230023F2
:1026B000DBB21A467B681A7085E0514B00221A7013
:1026C000FF21504B0A461A804F4B0A461A800023BE
:1026D000FB8117E0FB894D4A52F82330184600F081
:1026E00095FC0346002B0AD1464AFB891380454BD3
:1026F0001B889BB20C339AB23D4B1A8005E0FB89D4
:102700000133FB81FB89032BE4D9364B1B8898B23C
:10271000374B1B889BB21422194600F0E9FE394B57
:102720001B889BB2FF2B48D00023BB810AE0BB89EA
:10273000374A52F823300021184600F0E7FABB89E7
:102740000133BB81BB89032BF1D900237B8131E0AD
:102750007B892F4A52F823300121184600F0D6FA1F
:102760007B892B4A52F823300021184600F0F2FBF7
:10277000244B1B889BB21A46244B53F82230184630
:1027800000F044FC0346002B06D11F4A7B891380CE
:10279000204B01221A7010E01E4B00221A707B8918
:1027A0001B4A52F823300021184600F0AFFA7B890B
:1027B00001337B817B89032BCAD9114B01221A700B
:1027C000154B00221A700A4B1B889BB21A46012334
:1027D00093400649054A526913434B6100BF1037C5
:1027E000BD4680BDB6010020CCA70008003C0140DA
:1027F000B401002000000020D0A70008B301002091
:10280000E4010020E8010020E6010020E8020020A9
:10281000D8020020330D0020320D002080B400AF1C
:10282000264B1B6803F00203002B43D0244B93F884
:102830003530C3F30303DBB21846204BDB6C99B28F
:102840001F4A00F118035B0013440A46A3F807204F
:102850001B4B93F83530C3F30303DBB2013303F0B2
:102860000F03D9B2164A92F8353061F3030382F8A8
:102870003530134B93F83530C3F30303DBB2104A02
:1028800092F83520C2F30312D2B293FBF2F102FBAD
:1028900001F29B1A002B0DD1094A92F835306FF3E3
:1028A000030382F83530064A92F8363043F00103CC
:1028B00082F8363000BFBD4680BC70470020014022
:1028C000F001002080B584B000AF78607A681346CC
:1028D0009B0013445B001A46384BA3FB02235B09A1
:1028E0009AB2374B1A80364B1B889BB2354AA2FBF3
:1028F00003239B09FB81324B1B889BB2324AA2FB0C
:1029000003235B099AB2314BA3FB0213D9080B4690
:102910009B000B445B00D31ABB81294B1B889BB2E5
:102920002A4AA2FB0323DB089AB2284BA3FB02131B
:10293000D9080B469B000B445B00D31A7B81204BCC
:102940001B889AB2214BA3FB0213D9080B469B00AC
:102950000B445B00D31A3B81FB89DBB299B2FB8944
:10296000002B14BF01230023DBB20022032001F05F
:10297000BBFABB89DBB299B2FB89002B02D1BB89C0
:10298000002B01D0012300E00023DBB20022022053
:1029900001F0AAFA7B89DBB299B20123012201205E
:1029A00001F0A2FA3B89DBB299B201230022002098
:1029B00001F09AFA00BF1037BD4680BD09CB3D8DAE
:1029C000300D0020D34D62101F85EB51CDCCCCCC07
:1029D00098B500AF042275490420FEF729FB034691
:1029E0001C46022272490420FEF722FB03462343C1
:1029F000DCB206226F490420FEF71AFB034623438C
:102A0000DAB26D4B1A70022269490420FEF710FBFE
:102A100003461C46062267490420FEF709FB0346CD
:102A20002343DAB2654B1A70062262490420FEF78E
:102A3000FFFA03461A46624B1A70022001F0A2FA0E
:102A4000012212215F4800F0E1F9002209215E48CD
:102A500000F0DCF9032202215C4800F0D7F90121E3
:102A60005B4800F077FA01215A4800F073FA002120
:102A7000594800F06FFA0021584800F06BFA002125
:102A8000574800F067FA0121564800F063FA012127
:102A9000554800F05FFA0121544800F05BFA00212C
:102AA000524800F057FA0021514800F053FA002133
:102AB000504800F04FFA00214F4800F04BFA002335
:102AC0000A224E490A2000F01DFC00230A224C492C
:102AD000092000F017FC002305224A49282000F0B5
:102AE00011FC012305224849282000F00BFC01239A
:102AF0000A224649282000F005FC01230A22444905
:102B0000282000F0FFFB01230A224249282000F080
:102B1000F9FB01230A224049282000F0F3FB01F0D1
:102B200029FB00210720FDF7D1FB01210620FDF73D
:102B3000CDFB1420FDF74EFC012300223749042071
:102B4000FEF7E8F80123012235490320FEF7E2F8F9
:102B5000002301224FF07A510220FEF7DBF8012317
:102B600002223049002000F0A9FD2F492F4800F033
:102B700099FAFEF735FB00F0D9FC03461A462C4BB8
:102B80001A702B4800F024FD2A4B1B681846FFF7EB
:102B900099FE2948FEF704FF284801F089F8284BE0
:102BA0001B78DBB21846FEF733FCE4E74C0200204A
:102BB0005002002054020020140D0020150D0020AA
:102BC000160D0020800200205C0200202C03002053
:102BD000C4A70008C0A70008C8A70008BCA7000831
:102BE000D0A70008D4A70008D8A70008DCA70008D1
:102BF000E0A70008E4A70008E8A70008ECA7000881
:102C0000F0A70008F4A70008F8A70008FCA7000830
:102C100000A8000804A8000808A80008000048430D
:102C200000A00C46340300200CA8000810A80008DF
:102C3000EC0100202C0D00206C0D0020F001002084
:102C40000000002080B483B000AF78607B681B0A6E
:102C500003F5801380339B0218460C37BD4680BCB9
:102C6000704700BF80B485B000AF78600023FB815F
:102C700002E0FB890133FB817B685A1C7A601B7878
:102C8000002BF6D1FB8918461437BD4680BC70472F
:102C900080B584B000AF78607B681B78FB72786881
:102CA000FFF7E0FF03463B813B89022B05D17B68A0
:102CB00001331B78303BFB7313E03B89032B10D1AE
:102CC0007B6801331B78303BDBB21A469200134419
:102CD0005B00DAB27B6802331B781344DBB2303B13
:102CE000FB73FB7A402B0BD9FB7A492B08D8FB7A74
:102CF000413B1B021AB2FB7B1BB213431BB2BB81CD
:102D0000BB8918461037BD4680BD00BF80B584B072
:102D100000AF78600B46FB707868FFF7B9FF034699
:102D2000FB81FB89DBB2BB81FB891846FFF78AFF79
:102D3000B8603549344B1B6BFA89120A92B21046BF
:102D40000122824013430B63BB681A68BB895B0096
:102D5000032101FA03F3DB431A40BB681A60BB6826
:102D60001B68FA7802F00301BA89520001FA02F2F4
:102D70001A43BB681A60BB68DA68BB895B00032131
:102D800001FA03F3DB431A40BB68DA60FB78032BDC
:102D900035D801A252F823F0A92D0008BF2D000854
:102DA000EB2D0008FF2D0008BB68DA68BB895B00CB
:102DB000012101FA03F31A43BB68DA6020E0BB6823
:102DC0005A68BB89012101FA03F3DB431A40BB684F
:102DD0005A60BB689A68BB895B00032101FA03F360
:102DE000DB431A40BB689A600AE0BB685B68BA893B
:102DF000012101FA02F21A43BB685A6000E000BFE9
:102E000000BF1037BD4680BD0038024080B586B097
:102E100000AFF8600B467A607B810B4B7B6109E069
:102E20007B899B00FA6813441A687B68D9B27B6976
:102E3000104698477B895A1E7A81002BF0D100BF3B
:102E40001837BD4680BD00BF0D2D000880B586B087
:102E500000AFF860B9607A60FB70F868FFF718FFA0
:102E60000346FB82FB8ADBB2BB82FB8A1846FFF774
:102E7000E9FE38613B691A68BB8A5B00022101FAEE
:102E800003F31340002B5FD03B699A68BB8A5B0059
:102E9000032101FA03F3DB431A403B699A603B6963
:102EA0009A68BB8A5B00796801FA03F31A433B69AD
:102EB0009A60FB78002B00D00AE03B69DB68BA8A95
:102EC0005200012101FA02F21A433B69DA6000BFA5
:102ED000BB680F2B36D8BB8ADB089BB21846BB8A6F
:102EE000DB089BB21A463B69083253F82230BA8A93
:102EF000920002F01C020F2101FA02F2D24303EA0F
:102F000002013B6900F1080243F82210BB8ADB088A
:102F10009BB21846BB8ADB089BB21A463B69083253
:102F200053F82220BB8A9B0003F01C03B96801FA06
:102F300003F342EA03013B6900F1080243F822105F
:102F4000012302E0002300E0002318461837BD46A5
:102F500080BD00BF80B584B000AF78600B46FB70C9
:102F60007868FFF795FE0346FB81FB89DBB2BB81E6
:102F7000FB891846FFF766FEB860FB78002B21D06E
:102F8000012B00D03DE0BB681B8B9BB21AB2BB8902
:102F9000012101FA03F31BB213431BB29AB2BB68BF
:102FA0001A83BB685B8B9BB21AB2BB89012101FA01
:102FB00003F31BB2DB431BB213401BB29AB2BB68D4
:102FC0005A831EE0BB681B8B9BB21AB2BB890121DE
:102FD00001FA03F31BB2DB431BB213401BB29AB2DC
:102FE000BB681A83BB685B8B9BB21AB2BB89012199
:102FF00001FA03F31BB213431BB29AB2BB685A83A4
:1030000000BF00BF1037BD4680BD00BF80B584B093
:1030100000AF78607868FFF73BFE0346FB81FB89D1
:10302000DBB2BB81FB891846FFF70CFEB860BB68BA
:103030001A69BB8922FA03F303F00103002B14BFC2
:1030400001230023DBB218461037BD4680BD00BF08
:1030500080B582B000AF00237B6014E001211048EE
:10306000FFF778FF0CA1D1E90001FDF73BFA002141
:103070000B48FFF76FFF08A1D1E90001FDF732FA15
:103080007B6801337B607B68012BE7DD00BF08377D
:10309000BD4680BDAFF30080000000000088E34023
:1030A00014A8000890B587B000AF7860396002219D
:1030B0007868FFF72BFE02213868FFF727FE002310
:1030C000022203217868FFF7C1FE002302220321B8
:1030D0003868FFF7BBFE0A20FDF7A0F878610B20E7
:1030E000FDF79CF83861854A844B5B6C43F4C02340
:1030F00053647B691B889BB223F001039AB27B69FE
:103100001A807B691B8A7B6900221A827B690022F4
:103110005A627B694FF6FF72DA627B69A7221A85D1
:103120007B691B889BB223F4637323F002039AB27A
:103130007B691A807B691B889BB243F008039AB2B3
:103140007B691A807B699B899BB223F003039AB247
:103150007B699A817B691B8C9BB223F001039AB235
:103160007B691A847B691B8B7B6900221A837B69CC
:103170001B8B9BB223F003039AB27B691A837B6992
:103180001B8B9BB223F070039AB27B691A837B6915
:103190001B8B9BB243F070039AB27B691A837B69E5
:1031A0001B8B9BB223F008039AB27B691A837B695D
:1031B0001B8C9BB223F00A039AB27B691A847B6949
:1031C0004FF6F6725A637B691B8C9BB243F0010386
:1031D0009AB27B691A847B691B889BB243F0010316
:1031E0009AB27B691A803B691B889BB223F001036A
:1031F0009AB23B691A803B691B8A3B6900221A829A
:103200003B6900225A623B694FF6FF72DA623B6902
:10321000A7221A853B691B889BB223F4637323F0B2
:1032200002039AB23B691A803B699B899BB223F0E7
:1032300003039AB23B699A813B691B8C9BB223F0D2
:1032400001039AB23B691A843B691B8B3B690022DC
:103250001A833B699B899BB243F003039AB23B6993
:103260009A813B691B8C9BB223F001039AB23B69A4
:103270001A843B691B8B3B6900221A833B691B8BB9
:103280009BB243F001039AB23B691A833B691B8BE3
:103290009BB223F0FC039AB23B691A833B691B8CF7
:1032A0009BB243F00A039AB23B691A843B691B8CB8
:1032B0009BB243F001039AB23B691A843B691B88B5
:1032C0009BB243F001039AB23B691A801A23FB6058
:1032D0000B48FB685B090A49FA68520951F8221049
:1032E000FA6802F01F02012404FA02F20A4340F8CD
:1032F000232000BF1C37BD4690BD00BF00380240F0
:1033000000E100E090B589B000AFB9607A601A467C
:103310000346FB811346BB813C4A3C4B5B6C43F448
:1033200080435364B868FFF7B3FC03461B0AFB8372
:10333000B868FFF7ADFC0346DBB2BB83BB8B9B08D1
:103340007B83BB8B9B089BB29B009BB2BA8BD31A2F
:103350003B833B8B9B00FB822D4C7B8B2C497A8BD8
:10336000023251F82220F88BF98A00FA01F10A435F
:10337000023344F82320BB89002B09D12549254B72
:103380009A68BB8B012000FA03F313438B600BE0B8
:10339000BB89012B08D11F491E4BDA68BB8B01206A
:1033A00000FA03F31343CB601A491A4B1A68BB8B1C
:1033B000012000FA03F313430B601748FB891649F9
:1033C000FA890A4492F80023D1B27A68D2B2120183
:1033D000D2B20A43D2B2034483F80023FB895B09CB
:1033E0007B83FB8903F01F03BB820B487B8B0A495D
:1033F0007A8B51F82210BA8A012404FA02F20A43A5
:1034000040F8232000BF2437BD4690BD003802405D
:1034100000380140003C014000E100E080B485B08C
:1034200000AF03460A46FB801346BB801549154B87
:103430001A68BB88012000FA03F313430B60FB8872
:103440005B099BB2FB60FB8803F01F03BB600E4966
:103450000D4AFB6852F823200120BB6800FA03F3F1
:103460001A43FB6841F823200649064B5B69BA887A
:10347000012000FA02F213434B6100BF1437BD462E
:1034800080BC7047003C014000E100E080B485B0A2
:1034900000AF03460A46FB801346BB801249124B1D
:1034A0001A68BB88012000FA03F3DB4313400B606A
:1034B000FB885B099BB2FB60FB8803F01F03BB60CA
:1034C0000A490A4AFB6852F823200120BB6800FA27
:1034D00003F3DB431A40FB6841F8232000BF143795
:1034E000BD4680BC704700BF003C014000E100E0E9
:1034F00080B584B000AF0346FB800B46BB8013460B
:103500007B80BA88FB8811461846FFF7BFFF7B888F
:1035100045F2082202FB03F3FB600121F868FCF787
:1035200033FE00BF1037BD4680BD00BF80B582B0FE
:1035300000AF204B1B78DBB2002B20D01E4B1B783A
:10354000DBB2002B1BD10023FB8012E0FB881B4A5F
:1035500052F8233001211846FFF7D8FBFB88174AA1
:1035600052F8233000211846FFF7F4FCFB880133A2
:10357000FB80FB88032BE9D90F4B01221A70104BFB
:103580001B78DBB2002B10D00D4B00221A700D4BB4
:103590001B889BB218460C4B1B889BB219460B4AE2
:1035A000830013440B441B7800E02023184608379F
:1035B000BD4680BDE4010020320D0020D80200206D
:1035C000330D0020E6010020E8010020C8020020A1
:1035D00080B582B000AF78607B681B78202B46D026
:1035E000254B05221A70254B00221A807B681B7818
:1035F0002F2B0FD97B681B78392B0BD87B681B7856
:10360000303B9BB21A46920013449B009AB21B4B6C
:103610001A8026E07B681B78402B11D97B681B78C9
:10362000442B0DD87B681B78403B9BB21A46520155
:10363000D21A92001344DB009AB2104B1A8010E0A9
:103640007B681B78232B07D02A2B00D009E00B4B7B
:1036500041F288321A8004E0084B41F270721A80FD
:1036600000BF064B1B889BB21846FCF7B3FE00BF99
:103670000837BD4680BD00BF00000020EA010020E1
:1036800080B485B000AF78600A4B1B68002B02D174
:10369000084B094A1A60074B1B68FB60054B1A6808
:1036A0007B681344034A1360FB6818461437BD4611
:1036B00080BC7047340D0020780D002090B58DB08F
:1036C00000AF396011461A460346FB710B46BB80BA
:1036D0001346BB71FB791B0203F1804303F5903362
:1036E0007B627B6A3B616A4B3B626A4BFB61FB79A5
:1036F000002B0CBF01230023DBB2FB760023FB85EC
:103700006549654B5A6CFB790833012000FA03F3D5
:1037100013434B643A693B699B6823F07C5323F065
:10372000010393605D4A5D4B5B6823F4403323F0F3
:103730001F035360594A594B5B6843F4433343F4C6
:10374000407353603A693B695B6823F0E06323F49C
:10375000006353603B693A69526842F490725A6060
:103760003A693B699B6823F4006323F0020393608A
:103770003B693A69926842F480629A60BB79012B96
:1037800000D00CE03B693A69926842F000529A60BE
:103790003B693A69926842F0C0629A6000BF3B6937
:1037A0003A69D26A22F47002DA623B693A69D26AF3
:1037B000B988481EF97E002901D0032100E00021CC
:1037C000014409050A43DA6209E0F98D07F11000A6
:1037D0003C6A00233A68A047FB8D0133FB85FA8DD4
:1037E000BB889A4202D2FB8D0F2BEED9FB7E002BB9
:1037F00023D02A4A294B5B6843F440035360284A8C
:1038000007F108031068186092889A800023BB852E
:1038100010E0FA8DBB8DD31A9BB207F10802F98D27
:1038200007F110003C6AA047FB8D0133FB85BB8D7F
:103830000133BB85BB8D022BEBD900237B8508E0D0
:10384000798D07F11000FB69072298477B8D0133C2
:103850007B857B8D122BF3D900233B831223FB82C4
:1038600010483B8B0F493A8B51F82210FA8A0124F9
:1038700004FA02F20A4340F823203B693A6992684D
:1038800042F001029A6000BF3437BD4690BD00BFD0
:10389000953B0008313C00080038024000230140FD
:1038A00018A8000800E100E0B0B58AB000AF0346F8
:1038B0000A46FB8013467B71874B7B62FA887B6AE2
:1038C0001046984738627B79042B00F2ED8001A204
:1038D00052F823F0E938000809390008413A000895
:1038E000973A00089B3A0008386A01F08BFF72A3F0
:1038F000D3E9002302F004F903460C46184621469A
:1039000002F0A4FA0346D1E042F21073FB8343F6BF
:103910007A23BB83714BBB61714B7B61714B3B6104
:10392000FA8BBB8B1344184601F05AFF04460D4630
:10393000FA8BBB8BB2FBF3F39BB20133184602F058
:103940008FFB0346396A184602F0DEFB0346184631
:1039500001F058FF02460B4659A1D1E9000101F0E0
:10396000F1FD02460B4656A1D1E9000102F0C8F86C
:1039700002460B46104619464FF000025A4B01F022
:10398000E1FD02460B462046294602F0B9F80346FF
:103990000C461846214602F059FA0346FB60B86906
:1039A00001F030FF03460C461A4623464FF0000054
:1039B0004D4902F0A5F803460C4625461C46796998
:1039C000F86802F055FC0346184601F01BFF02465A
:1039D0000B461046194600F095FC02460B46204661
:1039E000294601F063FF03460C4625461C4639690B
:1039F0004FF07E5002F03CFC0346184601F002FFF7
:103A000002460B462046294601F09EFD03460C4621
:103A10001A4623464FF00000334902F071F803467E
:103A20000C461846214628A3D3E9002301F08AFD5D
:103A300003460C461846214602F008FA034635E0D4
:103A4000386A01F0DFFE22A3D3E9002301F07AFDFA
:103A500003460C46184621464FF00002234B01F066
:103A600025FF03460C46184621464FF00002204B26
:103A700002F046F803460C46184621464FF0000275
:103A80001C4B01F061FD03460C461846214602F02E
:103A9000DDF903460AE03B6A08E03B6A194618462E
:103AA00002F02AFA034601E04FF0000318462837D7
:103AB000BD46B0BDAFF30080B81E85EB51B89E3F48
:103AC000295C8FC2F52808406666666666127140FA
:103AD00052B81E85EB51E83FF93A000800B0564550
:103AE00000401C46331395430000F03F00408F40D8
:103AF000000004400000394090B583B000AF034699
:103B0000FB80FB88184602F0A7FA0346184601F02E
:103B100079FE0DA3D3E9002301F0C8FE03460C464D
:103B2000184621460AA3D3E9002301F0E9FF034622
:103B30000C461846214602F089F9034618460C3710
:103B4000BD4690BDAFF30080295C8FC2F5280840C8
:103B50000000000000FEAF4080B485B000AF034617
:103B6000FB71FB791B0203F1804303F59033FB608B
:103B7000FB689B6823F00102FB689A60FB689B6806
:103B800043F00102FB689A6000BF1437BD4680BC59
:103B9000704700BF80B487B000AFF8607A601A4603
:103BA0000B467B8113463B817B89204AA2FB032382
:103BB0009B087B827A891D4BA3FB021399080B4655
:103BC0005B000B445B00D31A9BB21A46920013446D
:103BD0003B827B8A012B09D0022B0CD0002B00D01A
:103BE0000EE0FB681B6834337B6109E0FB681B68EF
:103BF00030337B6104E0FB681B682C337B6100BFC2
:103C00007B691B6879893A898A1A520079680A4463
:103C1000128802F01F013A8A01FA02F21A437B6904
:103C20001A6000BF1C37BD4680BC7047ABAAAAAA69
:103C300080B485B000AF78600B467B8013463B8034
:103C40007B881A4AA2FB0323DB087B817A88174B07
:103C5000A3FB0213D9080B469B000B445B00D31A4D
:103C60009BB21A46520013443B817B89002B02D041
:103C7000012B05D009E07B681B681033FB6004E072
:103C80007B681B680C33FB6000BFFB681A683B88CD
:103C900003F007013B8901FA03F31A43FB681A603A
:103CA00000BF1437BD4680BC704700BFCDCCCCCC24
:103CB00090B585B000AF78607B6893F83630C3F379
:103CC0000003DBB2002B28D00023FB811CE0FC8921
:103CD000FB897A6818335B001344B3F8073098B255
:103CE000FB897A68134493F830301946FFF7DCFDFE
:103CF00001467A6804F110039B0013440A46C3F896
:103D00000120FB890133FB81FB897A6892F8352019
:103D1000C2F30312D2B29342D9DB00BF1437BD46BF
:103D200090BD00BF90B585B000AF78600023FB73F5
:103D30000023BB7317E07B68DBB203F00F037B73D8
:103D40007C7BFB7B19460A2000F016F8034603FB38
:103D500004F3DAB2BB7B1344BB73FB7B0133FB730D
:103D60007B681B097B607B68002BE4D1BB7B18461A
:103D70001437BD4690BD00BF80B582B000AF7860FB
:103D800039603B68002B01D1012309E03B68013B0E
:103D900019467868FFF7F0FF02467B6803FB02F3E1
:103DA00018460837BD4680BD80B489B000AFF860C2
:103DB000B9601346FB71BB68DB43DB0FDBB2FB75FD
:103DC000BB68002B0DD0BB68092B07DCFB7D002BEB
:103DD00004D0FB79002B01D0012300E00023DBB2EB
:103DE00000E00223FB77BB68BB610AE0FB7F013385
:103DF000FB77BB69264A82FB03129210DB17D31AAA
:103E0000BB61BB69002BF1D1FB7D002B0CBF0123F3
:103E10000023DBB21A46FB7F1344FB77FB7FFA6873
:103E2000134400221A7021E0FB7F013BFB77FB7FEC
:103E3000FA68D018BB6883EAE372A2EBE372144B12
:103E400083FB02139910D317C91A0B469B000B442E
:103E50005B00D11ACBB23033DBB20370BB680C4AC3
:103E600082FB03129210DB17D31ABB60FB7F002B7F
:103E7000DAD1FB7D002B02D0FB681A7800E02D22FE
:103E8000FB681A7000BF2437BD4680BC704700BF76
:103E90006766666680B584B000AF0346FB71002399
:103EA000FB6016E097F90730DBB2DB09DBB219469D
:103EB0000B48FFF74FF800210A48FFF74BF80121A4
:103EC0000848FFF747F8FB795B00FB71FB6801339B
:103ED000FB60FB68072BE5DD00BF1037BD4680BDEA
:103EE000B0A80008B4A8000890B585B000AF04469B
:103EF000084611461A462346FB710346BB800B4613
:103F0000BB711346FB700023BB730A237B73002332
:103F1000FB7328E0FB79184AD35CDB43DBB218461D
:103F2000FFF7B8FFFB78002B0ED0BB88134AD35C99
:103F30005AB2BB79002B02D06FF07F0300E0002360
:103F400013435BB2DBB200E0BB7B1846FFF7A2FF76
:103F500000210B48FEF7FEFF01210948FEF7FAFF9A
:103F6000FB7B0133FB73FA7B7B7B9A42D2D300BF8E
:103F70001437BD4690BD00BF10030020140300207D
:103F8000B8A8000880B487B000AF7860754A754B58
:103F90009B6823F0F0039360724A724B9B6823F492
:103FA000E05393606F4A6F4B9B6843F4A053936058
:103FB0006C4A6C4B9B6823F460439360694A694B7D
:103FC0009B6843F4004393607B68012B27D0012B4F
:103FD00002D3022B4AD0C0E0624A624B1B6823F432
:103FE000803313605F4A5F4B1B6823F0807313605C
:103FF0005C4A5C4B1B6843F00103136000BF594BE4
:104000001B6803F00203002BF9D0564A554B9B68FE
:1040100023F00303936000BF524B9B689DE0514A1D
:10402000504B1B6823F0010313604E4A4D4B1B6835
:1040300023F0807313604B4A4A4B1B6843F4803370
:10404000136000BF474B1B6803F40033002BF9D00B
:10405000444A444B9B6843F00103936000BF414BCB
:104060009B6803F00403002BF9D076E03D4A3D4BFA
:104070001B6C43F0805313643B4A3B4B1B6843F477
:1040800080431360374A374B1B6823F080731360FB
:10409000344A344B1B6823F080631360314A314B40
:1040A0001B6823F0010313602E4A2E4B1B6843F458
:1040B0008033136000BF2B4B1B6803F40033002BCD
:1040C000F9D002237B61A8233B610423FB60072313
:1040D000BB60244B254A5A6022493B699A01FB6820
:1040E0001A437B695B08013B1B041A43BB681B0630
:1040F000134343F480034B601A4A1A4B1B6843F086
:104100008073136000BF174B1B6803F00073002B14
:10411000F9D0174A164B1B6823F007031360144BA2
:1041200005221A6000BF124B1B6803F00703052B22
:10413000F9D10C4A0B4B9B6823F003039360094AA7
:10414000084B9B6843F00203936000BF054B9B68DC
:1041500003F00803002BF9D000BF00BF1C37BD4699
:1041600080BC7047003802400070004010300024CE
:10417000003C024080B500AF0F4B9B6803F00C037E
:10418000002B03D100210D48FEF7E4FE0A4B9B688B
:1041900003F00403002B03D000210948FEF7DAFEE8
:1041A000054B9B6803F00803002B03D00021054852
:1041B000FEF7D0FE00BF80BD00380240BCA800085A
:1041C000C0A80008C4A8000800B51C4A20F000439D
:1041D000934283B018DDB3F1FF4F05DB014601F0D8
:1041E00089FE03B05DF804FB694600F0FDFA00F0BB
:1041F0000302012A15D0022A0CD0CAB1012201996A
:10420000009801F075F8ECE7002100F05FFC03B0C6
:104210005DF804FB0199009800F058FC00F10040A3
:10422000DFE70199009801F063F800F10040D8E75A
:104230000199009800F04AFCD3E700BFD80F493F2E
:1042400008B5C0F3C7537F3B162B01460EDC002B8D
:10425000024610DB0B481841014205D04FF48001A3
:104260001941114421EA0001084608BD802BFBD109
:1042700001F042FE08BD013300F00041F4D141F0ED
:104280007E51F1E7FFFF7F0000B51D4A20F000439B
:10429000934283B019DDB3F1FF4F05DB014601F016
:1042A00029FE03B05DF804FB694600F09DFA00F0BA
:1042B0000300012818D002280ED0D0B1019900982F
:1042C00000F004FC00F10040EBE70022002101F0C7
:1042D0000FF803B05DF804FB01220199009801F08A
:1042E00007F800F10040DCE70199009800F0EEFBD0
:1042F000D7E701220199009800F0FAFFD1E700BF4B
:10430000D80F493F2DE9F0418AB004460D4600F030
:1043100077F8364B93F90080B8F1FF3F06460F4619
:104320000DD022462B462046294601F059FD30B9D2
:10433000002200232046294601F048FD20B13046E6
:1043400039460AB0BDE8F081294B0890CDE9024515
:10435000CDE90445019320462946B8F1000F17D155
:10436000244D4FF0604400220023CDE9064501F0C2
:1043700005FD002832D002230093684601F02EF894
:1043800098B1089BB3B9DDE906010AB0BDE8F08138
:10439000194D002400220023CDE9064501F0EEFC72
:1043A00068B1022398450093E7D102F0B9F82223BF
:1043B0000360E6E702F0B4F8089B0360E3E701233B
:1043C000B8F1020F00930BD102F0AAF82123036089
:1043D0000A4801F005F8CDE90601D2E70123009370
:1043E000684600F0FBFF0028F2D1EDE7380300201B
:1043F000C8A80008FFFFEFC70000F0FFCCAC000822
:104400002DE9F04FB1F5801F85B006460F460B46EB
:104410005ADA024621F00044224300F0F8800029D5
:10442000C0F27A810022D64B01F040FA0B460F46CB
:10443000D4498B4206466FF035024ADCC3F31305BC
:1044400005F5152404F6647404F4801E8EF07F5183
:1044500081F440111B15A3F2FF3341EA05079C18B4
:1044600030460022C84B394604EB1E5401F06AF86E
:10447000AB1CC3F31303022B82468B464FF00002A2
:1044800030DC002301F07AFC002800F0C980002C09
:1044900000F04B81204601F0A3F9A5A3D3E9002346
:1044A00006460F4601F002FAA3A3D3E9002304460F
:1044B0000D463046394601F0F9F902460B462046D2
:1044C000294601F041F80AE0AE498B424FF0000264
:1044D000B4DD32463B463046394601F035F805B08A
:1044E000BDE8F08F4FF0804301F02EF802460B46F6
:1044F0005046594601F004FB064620460F4601F09F
:104500006FF93246CDE900013B4630463946CDE9E8
:10451000026701F0CBF902460B468046894601F05E
:10452000C5F987A3D3E9002306460F4601F0BEF97B
:1045300085A3D3E9002301F007F832463B4601F09A
:10454000B5F983A3D3E9002300F0FEFF32463B46D2
:1045500001F0ACF980A3D3E9002300F0F5FF424657
:104560004B4601F0A3F97EA3D3E900238046894698
:104570003046394601F09AF97BA3D3E9002300F0D5
:10458000E3FF32463B4601F091F979A3D3E90023DA
:1045900000F0DAFF32463B4601F088F90B4602464E
:1045A0004946404600F0D0FFA5F5C223C5F5D72502
:1045B000A3F27A4351351D43002D8046894656DDCE
:1045C0000022724B5046594601F070F952465B4644
:1045D00001F06CF906460F46002C68D132463B4686
:1045E0004046494600F0B0FFDDE9022301F05EF9E4
:1045F00002460B463046394600F0A4FF02460B4601
:104600005046594600F09EFF05B0BDE8F08F0022ED
:10461000002300205E4901F073FA05B0BDE8F08F79
:1046200055A3D3E900235046594601F03FF902460D
:104630000B460020554900F085FF524606460F46BE
:104640005B465046594601F031F902460B4630466A
:10465000394601F02BF906460F46002C40F09A80AF
:1046600002460B465046594600F06CFF37E7002CD7
:1046700000F0A4802EA3D3E90023DDE9000101F0BE
:1046800015F942464B4604460D465046594600F041
:1046900059FFDDE9022301F009F927A3D3E900233B
:1046A00006460F46DDE9000101F000F921E020A3F4
:1046B000D3E90023DDE9000101F0F8F832463B467A
:1046C00004460D464046494600F03EFFDDE9022320
:1046D00001F0ECF818A3D3E9002380468946DDE910
:1046E000000101F0E3F802460B464046494600F05F
:1046F0002BFF02460B463046394600F023FF524658
:104700005B4600F01FFF02460B462046294600F09C
:1047100019FF05B0BDE8F08F02460B4600F012FF0E
:104720000022002301F0ECF9D9E600200021D6E6B2
:104730000000E0FE422EE63F763C7935EF39EA3D57
:1047400044523EDF12F1C23FDE03CB966446C73FC0
:10475000599322942449D23F935555555555E53FD9
:104760009FC678D0099AC33FAF788E1DC571CC3FE4
:1047700004FA97999999D93F555555555555D53FAF
:1047800000005043FFFFEF7F0000F03F0000E03FDC
:10479000000050C3204601F023F80FA3D3E9002303
:1047A0008046894601F082F80DA3D3E90023044630
:1047B0000D464046494601F079F89AE702460B4615
:1047C0005046594600F0BEFEDDE9022301F06EF8C6
:1047D00014E700BFAFF300800000E0FE422EE63F8A
:1047E000763C7935EF39EA3D2DE9F04FAA4A20F0C1
:1047F0000044944289B067DDA84A94420D460746BA
:1048000001461CDC0028A64940F3EC8001F072FB55
:10481000A44B24F00F049C42064663D0A24901F049
:1048200069FB01462860304601F064FB9E4901F0B7
:1048300061FB01236860184609B0BDE8F08F9B4A10
:10484000944261DDB4F1FF4F46DAE615863EA4EBF3
:10485000C654204601F01EFE01F002FC034601464C
:104860002046059301F046FB4FF0874101F04CFCD8
:10487000804601F00FFE01F0F3FB0146044640467E
:10488000069401F037FB4FF0874101F03DFC002119
:10489000079001F0CDFD002800F0C58020460021E2
:1048A00001F0C6FD002814BF01230223804A0192B3
:1048B000022100913246294605A800F0CBF9002FCD
:1048C000C0F2A780034603E0002208604A6000238C
:1048D000184609B0BDE8F08F01F00CFB00236860BA
:1048E0002860F5E7734901F005FB7349044601F0C0
:1048F00001FB01462860204601F0FCFA6E4901F0F8
:10490000F9FA01236860E3E700F070FD6B49804627
:1049100001F0FAFB4FF07C5101F0EEFA01F0BAFD24
:10492000064601F09DFB5E49834601F0EDFB014622
:10493000404601F0DFFA5C498146584601F0E4FB4D
:104940001F2E82461ADC5E4A711E24F0FF0352F8C5
:104950002120934212D05146484601F0CBFA8046BE
:10496000C5F800804146484601F0C4FA514601F0BE
:10497000C1FA002F686058DB3346A9E75146484624
:1049800001F0B8FAE215C0F3C753D31A082B8046DA
:10499000E6DD48490392584601F0B6FB80460146E1
:1049A000484601F0A7FA01460446484601F0A2FA3B
:1049B000414601F09FFA40498046584601F0A4FB69
:1049C000414601F097FA01468246204601F092FAEC
:1049D000039AC0F3C753D21A192A804641DC2860D3
:1049E000A146BFE701F088FA2E4B24F00F049C4249
:1049F000064623D02C4901F07FFA01462860304654
:104A000001F078FA284901F077FA4FF0FF33686037
:104A10005EE795E80C0002F1004103F100422960D5
:104A200043426A6054E7032340E708F1004800F17D
:104A30000040C5F800806860734249E71D4901F0F5
:104A40005BFA1D49044601F057FA014628602046EA
:104A500001F050FA184901F04FFA4FF0FF33686047
:104A600036E71849584601F04FFB0146804620467C
:104A700001F040FA01468146204601F03BFA4146EA
:104A800001F038FA10490446584601F03DFB214632
:104A900001F030FA82465EE7D80F493FE3CB16407B
:104AA000800FC93FD00FC93F43443537800F49437A
:104AB0004CA900080044353708A3852E84F9223F0D
:104AC000CCA8000800A3852E32318D242DE9F843AF
:104AD00020F00044B4F1485F06460F4649DA01F081
:104AE000D9FC002800F09D803146304601F00CFBD7
:104AF0004E49054601F008FB4D4901F0FDF92946F4
:104B000001F002FB4B4901F0F5F9294601F0FCFAEE
:104B1000494901F0F1F9294601F0F6FA474901F057
:104B2000E9F9294601F0F0FA454901F0E5F929468D
:104B300001F0EAFA80464FF07C51284601F0E4FA91
:104B400041460446284601F0DFFA3946054630461C
:104B500001F0DAFA0146284601F0CCF90146204678
:104B600001F0C8F901464FF07E5001F0C3F9BDE8ED
:104B7000F883014601F0C8FA2C49054601F0C4FA51
:104B80002B4901F0B9F9294601F0BEFA294901F093
:104B9000B1F9294601F0B8FA274901F0ADF92946E3
:104BA00001F0B2FA254901F0A5F9294601F0ACFA65
:104BB000234901F0A1F9294601F0A6FA214B9C42B4
:104BC0008046B8DD204B9C4227DC04F17F4421461F
:104BD0004FF07E5001F08EF981464FF07C5128460F
:104BE00001F092FA214601F085F941460446284633
:104BF00001F08AFA39460546304601F085FA014649
:104C0000284601F077F90146204601F073F9014684
:104C1000484601F06FF9BDE8F883DFF834900B4C9B
:104C2000DBE74FF07E50BDE8F88300BF4ED747ADBD
:104C3000F6740F317CF29334010DD037610BB63A24
:104C4000ABAA2A3D9999993E0000483F0000903E4A
:104C50000000383F2DE9F04FDFB0BE4C0A93013B16
:104C60000193D31E48BF131D689D0891DB1023EAF2
:104C7000E37354F825400B9319460133A2EBC303A9
:104C80000794019A0693079B02909C18A1EB0205DA
:104C900015D42C44013421AE699F08E057F8250053
:104CA00001F0DEF90135A54246F8040F07D0002DCA
:104CB000F4DA01350020A54246F8040FF7D1079B2E
:104CC000002B2ADB079B0A9A019E194649AF01EB8C
:104CD00002089346019B002BC0F2A18122ABCBEBD3
:104CE000060503EB8505029BA3F1040A22AB03EB47
:104CF00086044FF000095AF8041F54F8040901F023
:104D000003FA0146484601F0F7F8AC428146F2D179
:104D10000136464547F8049FDCD1079E06F18043E3
:104D2000023B9B001A1D0EA90A440B440D920C93E2
:104D30005EAB03EB8603002E53F8508C23DD5EAB95
:104D400003EB8604543C0DAD49AF4FF06E51404625
:104D500001F0DAF901F09EFB01F082F94FF0874192
:104D6000814601F0D1F90146404601F0C3F801F057
:104D700091FB54F8041945F8040F484601F0BCF8BB
:104D8000BC428046E1D14046DDF81880414600F043
:104D900077FB4FF07851044601F0B6F900F02AFB9A
:104DA0004FF0824101F0B0F90146204601F0A2F82F
:104DB000044601F06FFB074601F052F90146204618
:104DC00001F098F84446002C054640F30F81711E0F
:104DD0000EAAC8F1080352F8212042FA03F000FAA3
:104DE00003F3D31A0EAAC8F1070A42F82130074488
:104DF00043FA0AFABAF1000F30DD002E07F101077D
:104E000040F34D82002214460DA907E0C3F58070DF
:104E10000BB108600124013296420BDD51F8043FCA
:104E2000002CF3D00132C3F1FF0396420B604FF028
:104E30000104F3DC069B002B0DDD012B00F0DE806E
:104E4000022B08D1721E0EAB0EA953F8223003F0CC
:104E50003F0341F82230BAF1020F7DD000212846ED
:104E600001F0E6FA002800F09180079B741EA3422F
:104E700010DC06F180430EAA013B0D9802EB830380
:104E8000002253F80419834242EA0102F9D1002AB0
:104E900040F0DF80079B0EAA013B52F82330002B25
:104EA00040F0FB810C9B012753F804290137002AAD
:104EB000FAD0F219731C9342099240DC0B9AB900A4
:104EC00003EB02080A9A039108F180486999164495
:104ED00008F1FF38B20001EB880822A99B00049278
:104EE00001EB020A4AAA02EB0309043B05930026E0
:104EF00058F8040F01F0B4F8019B4AF8040B002B9A
:104F00001FDB049BF418059BF51822AB1C441D44C1
:104F1000029B0027A3F1040B5BF8041F54F804095B
:104F200001F0F2F80146384600F0E6FFAC420746D1
:104F3000F2D1039B49F8047B04369E42D8D1099EE6
:104F4000F6E6039B043600279E4249F8047BCFD146
:104F5000F5E700BF64AC000829464FF07E5000F032
:104F6000C9FF0546002C3FF479AF06994FF07E50FB
:104F700000F086FA0146284600F0BCFF05460021F5
:104F8000284601F055FA00287FF46FAF0297069F7C
:104F90002846794200F074FA4FF08741044601F048
:104FA00065FA002800F080814FF06E51204601F034
:104FB000ABF801F06FFA01F053F84FF08741054666
:104FC00001F0A2F80146204600F094FF01F062FAD9
:104FD0000EAB741C43F82600284601F05BFA3B46F2
:104FE000083306930EAB43F8240047E010D1731E3C
:104FF0000EAA52F823304FEA232AFBE6721E0EABAC
:105000000EA953F8223003F07F0341F8223022E743
:105010004FF07C5101F02AFA50B982461EE7013662
:105020004FF00009464547F8049F7FF453AE74E6FD
:10503000002E07F10107C8BF4FF0020A3FF7E2AEAA
:1050400029464FF07E5000F055FF4FF0020A05460A
:1050500004E70EAB069A53F824300297083A0692FA
:1050600063B904F18043013B0EA901EB830353F8BC
:105070000419013C083A0029F9D0069206994FF02C
:105080007E5000F0FDF9002C0546C0F21781A30008
:105090004AAA1F1D02EB030801930EAB1F4408F13F
:1050A000040657F8040D00F0DBFF294601F02CF848
:1050B0004FF06E5146F8040D284601F025F80EAB6E
:1050C0009F420546EDD1DDF81C90CDF80CA0A8F16B
:1050D00004080027A346B9F1000FB8BF002615DB6E
:1050E000814C82480026C246002503E0AF420DDB1A
:1050F00054F8040F5AF8041F01F006F80146304630
:1051000000F0FAFE0135A9450646EFDA5EAB03EB87
:105110008703A8F1040843F8A06C48AB984507F151
:105120000107D8D1689BDDF80CA05C46032B59D849
:10513000DFE803F08C5E5E02002C40F3BD80019A34
:105140005EA98B1836AD53F8A07CAE1856F8049CB7
:105150003946484600F0D0FE80460146484600F0F9
:10516000C9FE394600F0C8FE306046F8048DB542ED
:105170004746EBD1012C40F39F80019A5EA98B1822
:10518000AC1853F8A06C25460DF1DC0955F8048CD9
:105190003046414600F0B0FE07460146404600F06A
:1051A000A9FE314600F0A8FE286045F8047DA94517
:1051B0003E46EBD10020043438AD54F8041D00F015
:1051C0009BFEA542F9D1BAF1000F6AD0369A379BFF
:1051D00000F1004002F1004203F10043089CA0608E
:1051E00022606360029B03F007005FB0BDE8F08FB0
:1051F000019D36AE04353544002055F8041D00F0FD
:105200007BFEB542F9D1BAF1000F39D0089A00F10E
:10521000004301461360369800F06CFE002C0BDD55
:1052200036AE0125013556F8041F00F065FEAC428C
:10523000F8DABAF1000F4FD0089A00F1004353603A
:10524000029B03F007005FB0BDE8F08F019B5EAAF0
:1052500013440020A3F19C05013C55F8041D00F007
:105260004BFE631CF8D1BAF1000F01D000F10040F1
:10527000089B1860029B03F007005FB0BDE8F08F49
:10528000089B01461860369800F034FE002CD8BF09
:105290000346C5DC089A5360D2E7012709E60024DB
:1052A000C8E5369A379B99E7204601F0F3F80EAB34
:1052B000344643F82600E1E6002084E7689B032B90
:1052C00090D801A252F823F0E5520008E1520008FC
:1052D000E1520008B9520008089A03465360AFE74C
:1052E000002090E70020BEE770AC00080000C93F36
:1052F0002DE9F84320F00043B3F1485F04460F4620
:10530000904603DA01F0C6F8002858D0214620461E
:1053100000F0FAFE05460146204600F0F5FE294958
:105320000646284600F0F0FE274900F0E3FD294636
:1053300000F0EAFE254900F0DFFD294600F0E4FE1A
:10534000234900F0D7FD294600F0DEFE214900F098
:10535000D3FD8146B8F1000F22D04FF07C51384682
:1053600000F0D2FE49468046304600F0CDFE0146B0
:10537000404600F0BFFD294600F0C6FE394600F069
:10538000B9FD15490546304600F0BEFE01462846E7
:1053900000F0B2FD0146204600F0ACFDBDE8F88308
:1053A0000146284600F0B0FE0B4900F0A3FD31464F
:1053B00000F0AAFE214600F09FFDBDE8F8832046DC
:1053C000BDE8F883D3C92E2F342FD7321BEF3836E0
:1053D000010D50398988083CABAA2A3E002070474D
:1053E00000200149704700BF0000F87F20F0004016
:1053F000704700BF2DE9F04120F00047FC0D7F3CD5
:10540000162C054613DC002C80461BDB194F274168
:10541000384214D0184900F06FFD002101F030F837
:1054200068B1002D1BDB28EA0700BDE8F081B7F169
:10543000FF4F04D3014600F05FFDBDE8F081284630
:10544000BDE8F0810C4900F057FD002101F018F88B
:105450000028F4D0002D08DB0020BDE8F0814FF4D7
:10546000000343FA04F4A044DDE7002FE7D003482B
:10547000BDE8F081FFFF7F00CAF24971000080BFE4
:1054800030F0004238B5034616D0B2F1FF4F0FD2CC
:10549000B2F5000F0D4610D30446D20D2A44FE2A61
:1054A0002EDC002A1DDD24F0FF4444EAC25038BD42
:1054B000014600F021FD38BD38BD4FF0984100F0A5
:1054C00023FE184A9542034607DBC0F3C752044641
:1054D000193AE3E7144800F02BF8134900F014FEE2
:1054E00038BD12F1160F13DA4CF2503295421946BC
:1054F000F0DD0E4800F01CF80C4900F005FE38BD48
:1055000019460A4800F014F8084900F0FDFD38BDBE
:10551000193224F0FF4040EAC2504FF04C5100F0E5
:10552000F3FD38BDB03CFFFF6042A20DCAF24971E5
:1055300001F0004120F000400843704781F0004135
:1055400002E000BF83F0004330B54FEA41044FEA68
:10555000430594EA050F08BF90EA020F1FBF54EA03
:10556000000C55EA020C7FEA645C7FEA655C00F09F
:10557000E2804FEA5454D4EB5555B8BF6D420CDD70
:105580002C4480EA020281EA030382EA000083EAF3
:10559000010180EA020281EA0303362D88BF30BD93
:1055A00011F0004F4FEA01314FF4801C4CEA1131E9
:1055B00002D0404261EB410113F0004F4FEA033348
:1055C0004CEA133302D0524263EB430394EA050FD3
:1055D00000F0A780A4F10104D5F1200E0DDB02FA42
:1055E0000EFC22FA05F2801841F1000103FA0EF2D6
:1055F000801843FA05F359410EE0A5F120050EF19C
:10560000200E012A03FA0EFC28BF4CF0020C43FACC
:1056100005F3C01851EBE37101F0004507D54FF0D9
:10562000000EDCF1000C7EEB00006EEB0101B1F529
:10563000801F1BD3B1F5001F0CD349085FEA30006F
:105640004FEA3C0C04F101044FEA445212F5800F7A
:1056500080F09A80BCF1004F08BF5FEA500C50F117
:10566000000041EB045141EA050130BD5FEA4C0CFA
:10567000404141EB010111F4801FA4F10104E9D183
:1056800091F0000F04BF01460020B1FA81F308BF7A
:105690002033A3F10B03B3F120020CDA0C3208DD46
:1056A00002F1140CC2F10C0201FA0CF021FA02F121
:1056B0000CE002F11402D8BFC2F1200C01FA02F191
:1056C00020FA0CFCDCBF41EA0C019040E41AA2BFB6
:1056D00001EB0451294330BD6FEA04041F3C1CDA7E
:1056E0000C340EDC04F11404C4F1200220FA04F09E
:1056F00001FA02F340EA030021FA04F345EA030148
:1057000030BDC4F10C04C4F1200220FA02F001FA09
:1057100004F340EA0300294630BD21FA04F029468B
:1057200030BD94F0000F83F4801306BF81F4801124
:105730000134013D4EE77FEA645C18BF7FEA655C97
:1057400029D094EA050F08BF90EA020F05D054EA69
:10575000000C04BF1946104630BD91EA030F1EBF6E
:105760000021002030BD5FEA545C05D14000494172
:1057700028BF41F0004130BD14F580043CBF01F565
:10578000801130BD01F0004545F0FE4141F470014B
:105790004FF0000030BD7FEA645C1ABF1946104626
:1057A0007FEA655C1CBF0B46024650EA013406BF27
:1057B00052EA033591EA030F41F4002130BD00BFE6
:1057C00090F0000F04BF0021704730B54FF48064A3
:1057D00004F132044FF000054FF0000150E700BF24
:1057E00090F0000F04BF0021704730B54FF4806483
:1057F00004F1320410F0004548BF40424FF0000170
:105800003EE700BF42004FEAE2014FEA31014FEAB2
:1058100002701FBF12F07F4393F07F4F81F0605101
:10582000704792F0000F14BF93F07F4F704730B570
:105830004FF4607401F0004521F0004120E700BF03
:1058400050EA010208BF704730B54FF000050AE08A
:1058500050EA010208BF704730B511F0004502D58B
:10586000404261EB41014FF4806404F132045FEA8D
:10587000915C3FF4DCAE4FF003025FEADC0C18BF32
:1058800003325FEADC0C18BF033202EBDC02C2F128
:10589000200300FA03FC20FA02F001FA03FE40EABA
:1058A0000E0021FA02F11444C1E600BF70B54FF0BA
:1058B000FF0C4CF4E06C1CEA11541DBF1CEA13559C
:1058C00094EA0C0F95EA0C0F00F0DEF82C4481EA04
:1058D000030621EA4C5123EA4C5350EA013518BF24
:1058E00052EA033541F4801143F4801338D0A0FB11
:1058F00002CE4FF00005E1FB02E506F00042E0FBBE
:1059000003E54FF00006E1FB03569CF0000F18BFC3
:105910004EF0010EA4F1FF04B6F5007F64F540746B
:1059200004D25FEA4E0E6D4146EB060642EAC621FE
:1059300041EA55514FEAC52040EA5E504FEACE2E6B
:10594000B4F1FD0C88BFBCF5E06F1ED8BEF1004F6E
:1059500008BF5FEA500E50F1000041EB045170BDEA
:1059600006F0004646EA010140EA020081EA03012E
:10597000B4EB5C04C2BFD4EB0C0541EA045170BD2A
:1059800041F480114FF0000E013C00F3AB8014F1A4
:10599000360FDEBF002001F0004170BDC4F10004ED
:1059A000203C35DA0C341BDC04F11404C4F120056E
:1059B00000FA05F320FA04F001FA05F240EA0200C9
:1059C00001F0004221F0004110EBD37021FA04F6FF
:1059D00042EB06015EEA430E08BF20EAD37070BDB9
:1059E000C4F10C04C4F1200500FA04F320FA05F018
:1059F00001FA04F240EA020001F0004110EBD3701A
:105A000041F100015EEA430E08BF20EAD37070BD89
:105A1000C4F1200500FA05F24EEA020E20FA04F362
:105A200001FA05F243EA020321FA04F001F0004111
:105A300021FA04F220EA020000EBD3705EEA430E82
:105A400008BF20EAD37070BD94F0000F0FD101F0B1
:105A50000046400041EB010111F4801F08BF013CEA
:105A6000F7D041EA060195F0000F18BF704703F028
:105A70000046520043EB030313F4801F08BF013DAF
:105A8000F7D043EA0603704794EA0C0F0CEA13556B
:105A900018BF95EA0C0F0CD050EA410618BF52EA25
:105AA0004306D1D181EA030101F000414FF000002B
:105AB00070BD50EA410606BF1046194652EA430639
:105AC00019D094EA0C0F02D150EA013613D195EAAD
:105AD0000C0F05D152EA03361CBF104619460AD1F5
